:400000000040002011000000550900005509000080B500AF00F0A8FC80B582B000AF3F4B12221A6001F026FB3D4B180002F018FD012001F02FFB302001F036F9394B802242
:40004000D2051A60384B384A126802210A431A60364B374A1A60374B00221A60364B364A126808218A431A60FA23DB00180001F069F90200FB1D1A70FB1D1B78002B02D092
:40008000012000F0C9FB2D4B180001F093FA2C4BFE2212021A602B4B2B4A1A602B4BFE2212021A60274B2A4A1A602A4BE02212011A60244B284A1A60284B92221A60284BDC
:4000C000802212061A60274B40221A60264B41221A60264B42221A60254B1900082001F07BF9082001F0F2F9224B234A1A600D4B224A1A60224B08221A60C046204B1B6830
:4001000008221340FAD11E4B01221A60034B11221A60C046BD4602B080BDC04630001040001BB7000C020B4078002E407C002E406969000064F02E406CF02E40DC050000BE
:40014000000301400000014040FF00800403014041FF00800803014042FF008000010B4008010B401401014010010140040101402918000008020B40FF3F0000050000407F
:4001800010020B4080B582B000AF72B6394B00221A60FB1D00221A7022E0FB1D1A7813005B009B185B00344A9B183B603B681A78597809020A43997809040A43DB781B068F
:4001C000134318003B681A795B791B0213439BB2190000F011FBFB1D1A78FB1D01321A70FB1D1B78012BD8D9244A254B1100180000F01EFB234B8022D2021A60224B234A63
:400200001A60234B992212041A60224B992212041A60214A204B1B78DBB23C218B43DBB214210B43DBB213701C4A1C4B1B78DBB216210B43DBB21370194B30221A60194B7C
:40024000194A1A60194B90221A60194BC02212041A60184B90221A60174B01221A60174B01221A60FFF7D8FE00F024FBC046BD4602B080BD6CF02E40284B0100404B010011
:40028000344B010014000B40000002400000EEEE00500F4030500F4001700F4000700F4000000440080004400040DA0000030440080304401803044000040440180404400D
:4002C00010B5064C2378002B07D1054B002B02D0044800E000BF0123237010BD7010002000000000244B0100084B10B5002B03D00749084800E000BF07480368002B00D172
:4003000010BD064B002BFBD09847F9E70000000074100020244B0100A80B00200000000080B588B000AF0200BB1D1A807B1D0A1C1A701F23FB1829221A70BB1D1B881B0A61
:400340009BB2DAB21823FB181A70BB1D1B88DAB21823FB185A701823FB187A1D12789A7002F048FB1823F91800230322292002F0EFF902001E23FB181A701E23FB181B7881
:40038000002BFAD1C04602F013FB020004231340F9D102F02FFB02001E23FB181A70C046BD4608B080BDC04680B588B000AF0200FB1D1A701F23FB1829221A701C23FB18BF
:4003C00000221A701C23FB18FA1D12785A7002F011FB1C23F91800230222292002F0B8F902001E23FB181A701E23FB181B78002BFAD1C04602F0DCFA020004231340F9D142
:4004000002F0F8FA02001E23FB181A701F23FB1818781823F9180023012202F02DFA02001E23FB181A701E23FB181B78002BFAD1C04602F0BDFA020004231340F9D102F0C4
:40044000D9FA02001E23FB181A701823FB181B781800BD4608B080BD90B585B000AF0F23FC181620FFF7A0FF030023700F23FB181B78012B00D0BDE0614B01211800FFF7BB
:400480004FFF82239B0001211800FFF749FF00219620FFF745FFFD219720FFF741FF0021E320FFF73DFF0421E420FFF739FF0221E520FFF735FF0121E620FFF731FF0321A9
:4004C000E720FFF72DFF0221F520FFF729FF0521D920FFF725FFCE21DB20FFF721FF0321DC20FFF71DFFF821DD20FFF719FF00219F20FFF715FF3C21A320FFF711FF0021BD
:40050000B720FFF70DFF3C21BB20FFF709FF0921B220FFF705FF0921CA20FFF701FFCC235B0001211800FFF7FBFED8235B0017211800FFF7F5FEAE23FF3300211800FFF778
:40054000EFFE0521FF20FFF7EBFE80235B0005211800FFF7E5FE9A23FF3305211800FFF7DFFED3235B001B211800FFF7D9FED6235B003E211800FFF7D3FEA823FF331F2114
:400580001800FFF7CDFE00213020FFF7C9FE10211120FFF7C5FE85235B0030211800FFF7BFFE46213F20FFF7BBFEFF213120FFF7B7FE63214120FFF7B3FE01212E20FFF777
:4005C000AFFE09211B20FFF7ABFE31213E20FFF7A7FE24211420FFF7A3FE31211C20FFF79FFE084B00211800FFF79AFE00211620FFF796FE00231800BD4605B090BDC0468D
:4006000007020000A302000080B500AF01211820FFF786FE00231800BD4680BD90B585B000AF0E23FC184F20FFF7BEFE030023700F23FB180E22BA18127807210A401A70E7
:4006400011E00E23FC184F20FFF7AEFE030023700F23FB180E22BA18127807210A401A70012000F081FF0F23FB181B78042BE8D100231800BD4605B090BDC04680B582B0D2
:4006800000AF6220FFF790FE03007B607B681800BD4602B080BDC04680B500AF07211520FFF73EFE00231800BD4680BD80B500AF1C4B1B78002B31D01B4B1B78002B28D19F
:4006C000002001F065FA03001A00184B1A80174B1B88642B02D9154B64221A80144B1A78144B9A76114B1B88DAB2124B1A77124B1B68DAB20F4BDA76002000F06DFA0A4BC6
:4007000001221A700C4B00221A60084B00221A8004E000F0CDFA044B00221A70C046BD4680BDC0468D1000208E100020342200208C100020BC0B00203022002080B582B0BB
:4007400000AF786039607B68012B02D0282B00D003E0044B01221A70C046C046BD4602B080BDC0468D10002090B583B000AF62B61E4B1900002001F037F8BC1D1C4B18005C
:4007800000F092F903002380BB1D1B88002B02D0002000F0DDFE01F065F901F0A5FC01F0BDF9C04601F0E6F9031EFBD101F00CFF0A2000F0D9FEFFF74FFE01F0A3FD01F0B8
:4007C000ADF9C04601F0D6F9031EFBD1FFF744FEFFF71AFFFFF722FFFFF750FF0200054B1A60FFF759FF02F09BFFE6E7AD0600003D0700003022002080B582B000AF786033
:4008000039603A687B680021180002F04DFFC046BD4602B080BDC04680B582B000AF0200FB1D1A70FB1DFA1D12781A70FEE7C04680B586B000AF7860396000233B610023D0
:400840007B612FE07B699B007A68D3181B68BB600F23FB18BA681A70BB68FF229343BB6018E03B695B003A68D3181B781A00BB68D31819003B695B003A68D3185B780B704B
:400880003B6901333B610F23FB181A780F23FB18013A1A700F23FB181B78002BE1D17B6901337B617B69022BCCD9C046BD4606B080BDC04680B500AF074B03221A60074B5B
:4008C00003221A60064B00221A60012000F00AF8C046BD4680BDC0463000304030003140000E3F4080B584B000AF0200FB1D1A70154B1B68FB60FB1D1B78002B05D0FB6837
:40090000802212061343FB6003E0FB685B005B08FB600D4BFA681A600C4B1B68FB60FB1D1B78002B05D0FB68802292041343FB6003E0FB68064A1340FB60044BFA681A601E
:40094000C046BD4604B080BD80033A4008010B40FFFFFFFD80B500AF02F062FE03001B680C2B00D1FEE7FEE780B586B000AF224B7B61224B3B61204B7B6135E03B691B68B5
:40098000FB603B695B68BB603B699B683B6000237B600CE0FB681A68BB681A60BB680433BB60FB680433FB607B6804337B607A683B689A42EED13B69DB683B6000237B60AD
:4009C00008E0BB6800221A60BB680433BB607B6804337B607A683B689A42F2D13B6910333B617B69013B7B617B69002BC6D102F01DFEFFF7B9FEFEE7010000002450010088
:400A000080B582B000AF154B144A126801218A431A6000237B600FE07B68032B04D8104B7A689200D35800E00E4B0F4A796889008B507B6801337B607B682F2BECD9FFF76A
:400A4000A1FB0A4B00221A60044B044A126801210A431A60C046BD4602B080BD00001040000000005509000000000020C000002080B500AF064B00221A70064B00221A7065
:400A8000054B00221A7000F009F8C046BD4680BD4B220020442200204A22002080B500AFC046BD4680BDC046B0B594B004AF78603E23FB1800221A802823FA183D4B1000DB
:400AC000190014231A0002F0E6FD3B4B1B78002B04D1FFF7CDFF384B01221A707B68002B5CD0364B7A681A603E23FB181B88002B29D11023FB181C22BA185A601023FB1803
:400B00002022BA181A601023FB1800221A812023FB181B221A802023FB181B225A802023FB1804221A711C23FB1800221A703E23FC180E23FA181023FB181100180002F06C
:400B4000CBFE030023803E23FB181B88002B29D13E23FC182823FD18AE231A0118491948194B0293194B0193052300932B0002F009FE030023803E23FB181B88002B11D1AD
:400B8000134B01221A703E23FC18124B0B221A2118000FF0C9FB0300238003E03E23FB1801221A803E23FB181B881800BD4610B0B0BDC0465C4B0100901000203822002014
:400BC000C8000020390F0000790200008058010042220020784B010090B585B000AF0200FB1D1A70FB1D1B78022B04D90E23FB1801221A804CE02A4B1B78042B43D1294BBB
:400C00001B78DBB21A00042313403CD1FB1D1B78002B0DD1244B00221A82234B5B68C822D2001A80204B5B68C822D2005A8010E0FB1D1B78012B0CD11B4B96221A821A4B04
:400C40005B68C822D2001A80174B5B688022D2015A80164BFA1D12781A700E23FC18124B18000CF061FF030023800E23FB181B88002B0DD10B4B1B78DBB204221343DAB231
:400C8000084B1A7004E00E23FB180422FF321A800E23FB181B881800BD4605B090BDC046422200204B220020DC0B00204A22002080B500AF0CF0F0FF054B1B78DBB2082227
:400CC0001343DAB2024B1A70C046BD4680BDC0464B22002080B584B000AF78600A00FB1C1A700023BB60BB68002B20D07B689A79BB681A700F23FB1800221A7012E00F2393
:400D0000FB181B780133BA68D3180F22BA18127879688A5C1A700F23FB181A780F23FB1801321A700F23FB181B78052BE7D9C046BD4604B080BDC04680B582B000AF78605F
:400D40007B681B789AB27B6801331B789BB21B029BB213439BB21800BD4602B080BDC04690B585B000AF78600F23FB1800221A707B689B890D22934232D17B68181D7A68A3
:400D80000F23FC18402300210FF0E6FA030023700F23FB181B78002B1AD17B685B681800FFF7CAFF03001A00022313409BB2002B07D00F4B1B687968822252001000984702
:400DC00006E00B4B1B6879680622FF3210009847084B1B78DBB201229343DAB2054B1A700F23FB181B781800BD4605B090BDC046382200204B22002090B585B000AF786036
:400E00000F23FC187B681800FFF7AAFF03002370154B1B78DBB21A00012313401FD10F23FB181B78002B16D00823FB1812229A707B689A890823FB181A800823FB180F2289
:400E4000BA181278DA700823FA187B68110018680DF0E2FF03E07B6818680EF055F8C046BD4605B090BDC0464B22002080B582B000AF7860C046BD4602B080BD80B500AF44
:400E8000044B00225A70034B00221A70C046BD4680BDC0464822002080B582B000AF7860C046BD4602B080BD80B500AFC046BD4680BDC04680B584B000AF78600E23FB18DD
:400EC00000221A707B689B79002B1CD10F23FB1800221A7012E00F23FB181B787A68D35C002B04D00E23FB1801221A700BE00F23FB181A780F23FB1801321A700F23FB1872
:400F00001B78052BE7D90E23FB181B781800BD4604B080BD80B582B000AF0200BB1D1A80C046BD4602B080BD80B582B000AF7860C046BD4602B080BD80B588B000AF0200C5
:400F40003960FB1D1A70C74B1B78DBB201221343DAB2C44B1A70FB1D1B78712B00D960E19A00C14BD3181B689F461023FB1807221A701023FB1800225A701023FB18180083
:400F800004F0B4FB1023FB1807221A701023FB1801225A701023FB18180004F0A7FB0923002B01D002F0B4FBB04B1B681800FFF781FF031E11D0AD4B1B68180002F0B4FB63
:400FC000AA4B1B6800211800FFF784FEA74B1B6801211800FFF77EFE36E0A54B1B781A003F231A40A34B1B789901FC231B010B401A43A14B1B781903F8235B020B401A437F
:401000009E4B1B785904FE231B040B401343BB61BB69DAB29A4B1A70BB691B0ADAB2984B5A70BB691B0CDAB2954B9A70944B180002F07AFB924B00211800FFF74BFE904BEA
:4010400001211800FFF746FE00200CF041FC0C23FB183F221A700C23FB1800225A700C23FB1818000CF052FC864B04221A70DFE03B681800FFF710FFDAE03B681A78824BE8
:401080001A70D5E03B687B617B691B78002B00D0C9E07B695B78002B0BD17C4B0022DA807A4B00229A80794B794A1A607B69774A5A606C4B1B78DBB201229343DAB2694BE5
:4010C0001A70B0E0674B1B78DBB21A002023134000D0AAE06F4B1B78102B00D0A5E06D4B0522DA70A1E03B681800FFF71DFF9FE03B681800FFF718FF624B02221A7097E08D
:40110000604B04221A7093E05E4B1B78022B00D18DE0544B1B78DBB21A000123134000D185E0504B1B78DBB21A00042313400BD0544B03221A704B4B1B78DBB2042293438A
:40114000DAB2484B1A7072E0464B1B78DBB21A00082313400BD04B4B04221A70414B1B78DBB208229343DAB23E4B1A705FE0454B1B78032B5BD1434B04221A7057E03B68EB
:401180001B881800FFF7C6FE52E0434A3B681000190002231A0002F07EFA3B4B00221A703D4B1B781A0013005B009B185B009E2292009A18394BD3180133394A1000190050
:4011C00006231A0002F067FAFFF76EFE30E0FFF755FE2DE03B685B88162B05D81E23FB183A6852881A8003E01E23FB1817221A801E23FB1819883B681A8800231204120CE8
:401200001B0C1B04134318000DF010FE10E03B681800FFF7F1FD0BE03B681800FFF726FE06E0C04604E0C04602E0C04600E0C0460C4B1B78DBB21A00112313400ED0094BB2
:401240001B78DBB201229343DAB2064B1A70154B1B68FA1D1278396810009847C046BD4608B080BD4B2200208C4D0100F80B00207CF1FF0F7DF1FF0F7BF1FF0F78F1FF0F6A
:40128000F00B00204222002044220020B4100020A80B0020840C002048220020805801003C2200203822002090B58BB000AF78602723FC1801F0DDFB03002370194B1A689D
:4012C0000C23FB181A60184B1A680C23FB185A607B68033B154AD35C1A000C23FB189A60134B1A680C23FB18DA601C23FB18114A1A600C23FA181C23FB185A600E4B1C22E5
:40130000BA181A600D4B0E4A1A600B4B1B682723FB181B78180001F0B0FBC046BD460BB090BDC04608010B4000010B40544F010030001040B6EA0000080010400400104093
:401340001700008080B584B000AF78600023FB60154B154A126801210A431A60134B144A1A60144B134A1268802109020A431A607B68002B12D01023FB600CE0012000F0EC
:4013800019F900F019F8031E02D00023FB6005E07B68013B7B607B68002BEFD1FB681800BD4604B080BDC04660F02E4078002E400220000010002E4080B582B000AF054BDD
:4013C0001B68012213407B607B681800BD4602B080BDC0460C002E4080B584B000AF02003960FB1D1A7080239B05FB60FB1D1B781F2B02D9002000F0ABF8FB1D1B78103348
:401400009B00FA68D3181B68BB60FB1D1B7810339B00FA68D3183A681A60BB681800BD4604B080BD90B587B000AF0200FB1D1A70BB1D0A1C1A70BB1D1B78032B02D900201A
:4014400000F086F8FB1D1B781F2B02D9002000F07FF8FB1D1B7803221340DB0006337B611323FC1801F005FB03002370FB1D1B789B08DBB29B00144A944663441B68FB6090
:4014800003227B699A401300DA43FB681340FB60BB1D1A787B699A401300FA681343FB60FB1D1B789B08DBB29B00074A94466344FA681A601323FB181B78180001F0DDFADA
:4014C000C046BD4607B090BD00E400E080B582B000AF0200FB1D1A70064BFA1D12781F210A40012191400A001A60C046BD4602B080BDC04600E100E080B582B000AF020097
:40150000FB1D1A70064BFA1D12781F210A40012191400A001A60C046BD4602B080BDC04680E100E080B582B000AF0200FB1D1A70064BFA1D12781F210A40012191400A00A4
:401540001A60C046BD4602B080BDC04680E200E080B582B000AF0200FB1D1A7001BEC046BD4602B080BDC04680B582B000AF786009E00D4B1B68180001F072FA7B680B4ADB
:40158000944663447B607A6880231B029A42F0D8074B1B687A685343180001F061FAC046BD4602B080BDC046980C00200080FFFF900C002080B582B000AF0200BB1D1A8052
:4015C000BB1D1B88044A12785343180001F048FAC046BD4602B080BD940C002080B500AF0F4B0F4A126801218A431A600C4B0C4A126802218A431A600A4B0A4A1268302180
:401600008A4310210A431A60064B064A126807218A4301210A431A60C046BD4680BDC04600F02E4000FF2E4080B500AF0F4B0F4A126802218A431A600D4B0D4A1268072109
:401640008A4302210A431A60094B094A126830218A4320210A431A60044B044A126801210A431A60C046BD4680BDC04600F02E4000FF2E4080B500AFFFF7B0FF044B044A2F
:401680001268802109060A431A60C046BD4680BD00F02E4080B584B000AF78600C4B1B6801221340FB607B68002B02D0012B03D005E0FFF793FF06E0FFF7B6FF03E000201A
:4016C000FFF746FFC046FB681800BD4604B080BD00F02E4090B583B000AFFC1D01F0C9F903002370074B074A1268C02109020A431A60FB1D1B78180001F0BFF9C046BD460E
:4017000003B090BD00010B4080B500AF054B1A68C0231B02134001D0012300E000231800BD4680BD00010B4090B583B000AFFC1D01F09FF9030023700D4B0D4A12680D49DA
:401740000A408021C9010A431A60094B084A126808490A40802109020A431A60FB1D1B78180001F08AF9C046BD4603B090BDC04600010B40FF3FFFFF90B585B000AF7860F0
:401780000B23FC1801F075F903002370FFF7BCFF031E04D00123FB60FFF7C6FF01E00023FB607B680D4A13407B600D4B0C4A12680C4911407A680A431A60094B1B68FB689A
:4017C000012B01D1FFF786FF0B23FB181B78180001F053F9C046BD4605B090BD0404040010020B40FBFBFBFF80B584B000AF786039600023FB607B68022B0AD8094B7A68B4
:401800009200D358FB60074B7A6892003968D15002E00020FFF79CFEFB681800BD4604B080BDC046C810002080B500AF344B1B68042213401FD0334B1B680422134017D05A
:40184000314B1B6804221340DA432E4B1B681A402C4B1A602C4B1B68042293431A002A4B1A602A4B1B68002B02D0284B1B6898470420FFF781FF224B1A688023DB00134069
:4018800022D0204B1A688023DB00134017D01E4B1A688023DB001340DA431A4B1B681A40184B1A60184B1B68194A1A40164B1A60164B5B68002B02D0144B5B689847802356
:4018C000DB001800FFF758FF0D4B1A688023DB02134011D00B4B1A688023DB02134006D00A4B9B68002B02D0084B9B6898478023DB021800FFF740FFC046BD4680BDC046F6
:4019000010020B40A40C0020C4100020C8100020FFFBFFFF80B582B000AF0321072000F003FB00237B6007E07B680221180000F075FB7B6801337B607B68002BF4D000F030
:4019400009F8002000F02EFB00F030F9C046BD4602B080BD80B582B000AF244B1B68DAB2234B1A70224B1B787B607B680F2293437B60204B1B78DBB21A000F2313407A68E4
:4019800013437B607B68F02293437B60194B1B78DBB21A00F02313407A6813437B60134B7A681A60144B154A1A60154B154A1A60154B1B687B607B680F2293437B607B68A8
:4019C000062213437B60104B7A681A601020FFF793FD0E4B19001020FFF7FEFC03211020FFF720FDC046BD4602B080BD00FF28404D22002062F1FF0F080028400002000166
:401A0000040028400008A001000402408523000080B582B000AF00F087FD00F037FD0021002000F045FD0021002000F08FFDFF2000F014FD402000F05FFD084B1B687B6048
:401A40007B68074A13437B60044B7A681A601020FFF73CFDC046BD4602B080BD040028400010088080B500AF0A4B1B78002B04D1FFF750FF074B01221A70FFF7C9FF064BDC
:401A8000054A12688021C9030A431A60C046BD4680BDC046EA1000200400284080B584B000AF0200FB1D1A70FB1D1A78FB1D01321A70FB1D1B78012B0CD0FB1D1A78094B6B
:401AC0001100180000F088FA0300FB60FB68002BEAD000E0C046FB1D1B781800BD4604B080BDC046A80C002080B582B000AF7860084B00221A707B68DAB2074B1A70054BA6
:401B000081221A707B68180000F04AF9C046BD4602B080BDE4100020E510002080B500AF124B00221A70124BFF221A70104B1B78DBB21800FFF7B2FF03001A000C4B1A70FC
:401B40000B4B1B78DBB2002B0DD1084B1B78DBB201221343DAB2054B1A70054B1B78DBB2180000F01DF9C046BD4680BDE4100020E510002080B500AF044B1B78DBB21A002A
:401B8000012313401800BD4680BDC046E410002080B582B000AF7860034B7A685200D35A1800BD4602B080BDE810002080B582B000AF00237B6006E07B68180000F062F83E
:401BC0007B6801337B607B68002BF5D0C046BD4602B080BD90B587B000AF786003237B6104231322BA18191C0B1CDB185B18137004221223FB1892001A701123FC1800F0EE
:401C000038FF030023701D4B7A699200D3581B68FB601223FB181B780F229A401300DA43FB681340FB601223FB181B7804229A401300FA681343FB60114B7A699200D358CD
:401C40000F4A796989008A581268132179180978072088400100C9430A401A60074B7A699200D358FA681A601123FB181B78180000F003FFC046BD4607B090BDA84F010087
:401C8000C44F010090B589B000AF78600323BB6104221723FB1892001A7004231622BA18191C0B1CDB185B1813700023FB61384A7B68D3181B783B61364BBA699200D35865
:401CC000344AB96989008A5812681721791809780F2088400100C9430A401A603B69022B40D03B69012B01D00623FB610F23FC1800F0BFFE03002370274BBA699200D3586B
:401D00001B68BB601623FB181B7807229A401300DA43BB681340BB601623FB181B78FA699A401300BA681343BB601B4BBA699200D358BA681A600F23FB181B78180000F0DE
:401D40009CFE164BBA699200D358144AB96989008A5812680421080001218140C9430A401A6010E00B4BBA699200D358094AB96989008A5811681722BA181278052090403A
:401D800002000A431A60C046BD4609B090BDC04650220020A84F0100C44F0100E04F010090B587B000AF78601723FB1800221A70384B3B6100F0B8FB00F068FB02239BB2F4
:401DC000013B9BB20021180000F072FB02239BB2013B9BB20021180000F0B8FBFF2000F03DFB402000F088FB1020FFF785FB2A4B802252021A60C046274B1B681B0C1B0407
:401E0000FAD1264B01221A601020FFF78BFB1020FFF75CFB1020FFF76FFB214B1B68FB60FB68204A1340FB6050231A0050231B041343FA681343FB60194BFA681A601A4B1E
:401E40001B68FB60FB68194A1340FB60FB68184A1343FB601020FFF739FB7B681800FFF7B9FE0B23FC1800F004FE030023700E4BFA681A60002000F0F3FD074B3A691A602A
:401E80000B23FB181B78180000F0F7FDC046BD4607B090BD0000FF030C002840140028400800284000FF80FF04002840FF1FDFFF2020200080B584B000AF7860144B1B68CB
:401EC00099B2144B7A685200D1527B681800FFF7D9FE1020FFF710FB0F4B1B68FB60FB680E4A1340FB60FB68A02212021343FB60094BFA681A600A4B094A126809490A406F
:401F00001A601020FFF7E2FAC046BD4604B080BD0C002840E810002004002840FF1FDFFF0800284000FF80FF80B584B000AF786039601A4B3A689200D258184B3968890070
:401F4000CB58186879680B005B005B18072199400B00DB4303401360114B3A689200D3581B68FB607B689B000F229A401300DA43FB681340FB607B689B0005229A4013002F
:401F8000FA681343FB60064B3A689200D358FA681A60C046BD4604B080BDC046C44F0100A84F010080B584B000AF78607B68032213407B60074B1B68FB607B685B02FA687E
:401FC0001343FB60034BFA681A60C046BD4604B080BDC0460400284080B584B000AF786039603B68DB08FB603B680722134001229A400B23FB181A707A68FB68D3181B7886
:402000000B22BA1812781340DBB2002B01D0012300E000231800BD4604B080BD80B582B000AF786039603B68D9B2044A7B68D3180A1C1A70C046BD4602B080BD50220020FD
:4020400080B584B000AF78600F23FB1814497A688A1812781A70134B7A685200D15A124B7A685200D152114A7B68D31800221A700F4B7A6852000021D1520F23FB181B7846
:4020800005210C4AD154074B7A685200D15A0A4B7A685200D152C046BD4604B080BDC046A44F0100E8100020EC100020F0100020F4100020FC1000205422002080B582B08D
:4020C00000AF78607B681800FFF70EFDC046FFF751FD031EFBD17B681800FFF7B1FFC046BD4602B080BDC04680B582B000AF00237B6006E07B681800FFF7E0FF7B680133A6
:402100007B607B68002BF5D0C046BD4602B080BD90B587B000AF78600F23FB186A497A688A1812781A700C23FB1814221A801023FB18664A796849008A5A1A80644B1B7874
:40214000002B15D0634B7A685200D25A1023FC181023FB181B881100180000F0F5F8030023805C4B7A685200102179180988D152594B7A685200D35A1022BA1812889A4295
:4021800012D3564A7B68D31800221A70524B7A685200D25A1223FB181021791809888A1A1A8001237B610CE04B4B7A685200D15A1223FB181022BA1812888A1A1A80002322
:4021C0007B617B69002B24D11223FB181B88142B1FD9424A7B68D3181A7841497B68CB181B789A4209D37B681800FFF729FF3B4A7B68D31800221A704AE0384A7B68D318C4
:402200001B780133D9B2354A7B68D3180A1C1A703EE01223FA180C23FB1812881B889A4207D91223FB181B88132B31D87B69002B2ED1294B7A685200D35A1B02BB60294AEF
:402240007B68D3181B781A00BB681343BB601023FB181B88BA68D318BB601F4B7A685200D35A1A00BB689B1ABB60BB681B0A99B2194B7A685200D152BB68D9B2194A7B6824
:40228000D3180A1C1A70154A7B68D31800221A701223FA180C23FB1812881B889A420AD97B69002B07D0104B7A685200122179180988D15204E00C4B7A6852000021D15285
:4022C000C046BD4607B090BDA44F0100E8100020B10C002054220020EC10002058220020B00C0020F0100020F410002080B582B000AF78607B681800FFF70AFFC046BD468B
:4023000002B080BD80B582B000AF00237B6011E07A680C4B11001800FFF75EFE03003B603B68002B03D07B681800FFF7DFFF7B6801337B607B68002BEAD0C046BD4602B072
:4023400080BDC046A80C002080B584B000AF0200BB1D1A803B1D0A1C1A80BB1D1A883B1D1B88D318FB603B1D1B885B00FA68D318FB60FB689B08FB60FB689BB21800BD46BD
:4023800004B080BD80B500AF1020FFF7B5F82D4B01221A602C4B1B78DBB21800FFF78AFD2A4B1B78DBB25BB2002B08DA274B1B78DBB201229343DAB2244B1A703CE0224BEC
:4023C0001B78DBB21800FFF769FB03001A001E4B1A701D4B1B78DBB2002B06D11A4B1B78DBB21800FFF7DCFC26E0184B1B78DBB201229343DAB2154B1A70144B1B78DBB2CF
:402400001A004023134017D0114B00221A700FE00F4B1B781A000E4B1B7819000D4B595C0D4B99540A4B1B780133DAB2084B1A70074B1B78002BEBD01020FFF747F8C046D5
:40244000BD4680BD14002840E5100020E4100020FE1000204C220020A80C002080B582B000AF7860C046074B1B68002BFBDB054B7A68120204490A431A60C046BD4602B008
:4024800080BDC046000001404000008080B500AFC046054B1B68002BFBDB034B034A1A60C046BD4680BDC046000001404000004080B584B000AF0200BB1D1A807B1D0A1CAE
:4024C0001A700C4B1B6807221340FB60BB1D1B881A02FB681A437B1D1B78DB00FF210B401343BB60034BBA681A60C046BD4604B080BDC0460003014080B582B000AF78604C
:40250000C046074B1B68002BFBDB054B7A68120204490A431A60C046BD4602B080BDC046000001404100008080B500AFC046054B1B68002BFBDB034B034A1A60C046BD4689
:4025400080BDC046000001404100004080B584B000AF0200BB1D1A807B1D0A1C1A700C4B1B6807221340FB60BB1D1B881A02FB681A437B1D1B78DB00FF210B401343BB6098
:40258000034BBA681A60C046BD4604B080BDC0460403014080B500AF00F036F8C046BD4680BDC04680B500AF064B064A1268802109060A431A6000F019F800F01FF8C04617
:4025C000BD4680BD0000244080B500AF064B1B78002B04D1FFF7DEFF034B01221A70FFF7E1FFC046BD4680BD0011002080B500AF0920FEF76BFFC046BD4680BD80B500AFBE
:40260000C046BD4680BDC04680B500AF204B00221A60204B204A1A60204B214A1A60214B00221A60204B00221A60204B1C4A1A601F4B00221A600920FEF75EFF032109209C
:40264000FEF7F0FE1B4B19000920FEF7C5FE1A4B00221A60194B00221A60194B00221A60184B00221A60184B00221A60174B00221A60174B10221A70164B00221A80164B7E
:4026800000221A60154B00221A60C046BD4680BD000024406000244077080080000324400701008004032440100324400002244004022440812A0000C80E2440880E244095
:4026C000480F2440080F2440C80F2440880F24405922002064220020742200206022002080B500AF124B124A1268520052081A60104B00221A60104B00221A600F4B0F4AF7
:4027000012680F490A401A600E4B00221A600E4B00221A600D4B10221A70054B044A1268802109060A431A60C046BD4680BDC04600002440680024406C0024406000244066
:40274000FF5CFFFF880F2440C80F24405922002080B586B000AFF860B9607A603B6004237B61BB68002B20D0344B1B78DBB2102B0CD10920FEF7C0FE314B1B6801221340E6
:4027800001D0082300E000237B610EE02B4B1B78DBB2602B09D12B4B1B889BB2082293439AB2284B1A8000237B617B69002B3CD1224B28221A70244B00221A60234B00229F
:4027C0001A60234B7A681A60224BBA681A603B68DAB2214B1A70FB685B00FF221340FB60184B1B889BB2022293439AB2154B1A801A4B40221A601A4B1A4A1A601A4B142228
:40280000FF321A60194B40221A603B680122134005D000F007F9164BFA681A6005E0144BFA681A60134B02221A600920FEF74EFE7B691800BD4606B080BDC0465922002079
:4028400064002440642200206C2200206022002078220020702200205C220020800F2440000F244017030000080F2440880F2440400224406800244080B586B000AFF860B6
:40288000B9607A603B6004237B61BB68002B20D0394B1B78DBB2102B0CD10920FEF72CFE364B1B680122134001D0082300E000237B610EE0304B1B78DBB2602B09D1304B87
:4028C0001B889BB2082293439AB22D4B1A8000237B617B69002B47D1274B29221A70294B00221A60284B7A681A60284BBA681A603B68DAB2264B1A70FB685B00FF221340D3
:4029000001221343FB601E4B1B889BB2012293439AB21B4B1A801F4B1F4A1A601F4B1422FF321A60184B1B68072B03D81C4B04221A6009E01B4B1B4A1268802149000A432E
:402940001A60174B08221A603B680122134005D000F068F8144BFA681A6005E0124BFA681A60124B02221A600920FEF7AFFD7B691800BD4606B080BD592200206400244026
:402980006422002074220020682200207C2200205C220020000F244017030000080F2440C80F244060002440400224406800244080B582B000AF0920FEF79EFD0B4B1B8874
:4029C0009BB27B600A4B1B78DBB220221340DBB2002B03D07B68042213437B600920FEF775FD7B681800BD4602B080BD642200205922002080B582B000AF0920FEF77CFD75
:402A0000074B1B889BB27B60054B00221A800920FEF75CFD7B681800BD4602B080BDC0466422002080B582B000AF01237B60094B1B682022134001D0082300E000237A68FB
:402A400013437B60044B7A681A60C046BD4602B080BDC0466400244068002440000000000230800803D00138FDD1C046C046C0467047EFF3108072B6704780F31088704778
:402A800080B582B000AF00233B60C04B1B68002B02D0BE4B1B689847BD4B1B680122134002D0BC4B00221A60BB4B1B78DBB220221340DBB2002B38D0B84B1A6880235B00D8
:402AC00013400AD0B64B1B889BB2C022920013439AB2B34B1A8001233B60B04B1B68012213400AD0AE4B1B889BB29022920013439AB2AB4B1A8001233B603B68002B14D0AD
:402B0000A54B1B78DBB201221340DBB2002B01D0012300E00223A24A128892B213439AB29F4B1A809C4B00221A709B4B1B78DBB220221340DBB2002B00D1A4E1974B1B68CC
:402B40001022134018D0974B10221A60924B1B78DBB201221340DBB2002B01D0012300E002238F4A128892B213439AB28C4B1A80894B10221A7090E1874B1B78DBB208224E
:402B80001340DBB2002B29D0844B1B68022213400ED0844B02221A60814B1B889BB28822920013439AB27E4B1A8001233B6015E0794B1B78DBB201221340DBB2002B03D067
:402BC000754B25221A7009E0734B24221A70764B1B68002B02D0754B10221A606E4B1B78DBB204221340DBB2002B00D113E16A4B1B78DBB201221340DBB2002B5BD06C4B6C
:402C00001B680822134033D06A4B1A686A4B1B681F211940694B1B68CB18D31A7B607B68082B02D908237B601EE07B68002B1BD1634B634A126863490A401A6008237B606D
:402C400001233B6010E0604B1A685C4B1B68D2185E4B1B68DBB21370584B1B685A1C574B1A607B68013B7B607B68002BEBD11EE04F4B1B680422134019D0534B1A684F4B75
:402C80001B68D218514B1B68DBB213704B4B1B685A1C4A4B1A60494B1A68464B1B689A4203D24B4B04221A6001E001233B60494B494A1A60AFE0394B1B680222134032D079
:402CC000384B02221A60454B1B681F221A40434B196880231B020B4001D0012300E00023D2183F4B1B689A1A3D4B1A603C4B1A683C4B1A602A4B1B889BB284229200134349
:402D00009AB2274B1A80384B374A1268802149020A431A60344B344A126834490A401A6001233B6077E0324B1B681022134067D020E02B4B1A681C4B1B689A4221D21A4B6A
:402D40001B685A1E264B1B689A4205D1294B40221A60164B40221A60274A284B1968204B1B68CB181B78DBB213601D4B1B685A1C1B4B1A60194B1B681F221340082BD8D1C4
:402D800000E0C0461B4B10221A6044E0041100208C0E2440880E2440592200200C0F244064220020000F244078220020880F2440CC0F2440682200200803244074220020D4
:402DC00060002440FFFEFFFF7C2200204003244068002440C00F2440ED0F0000080224406C2200206022002004022440FFFFFEFF8C0F2440800F2440400224407022002047
:402E0000284B1B684022134005D0274B1A68274B1A6001233B603B68002B3ED0244B244A126824490A401A60234B00221A60234B00221A60224B1B78DBB202221340DBB26A
:402E4000002B15D01F4B1B78DBB201221340DBB2002B01D0092300E00A231B4A128892B213439AB2184B1A80164B60221A7014E0164B174A126820210A4001D0182200E08B
:402E800010221A6009E00F4B1B78DBB210221340DBB2002B01D1FFF723FCC046BD4602B080BDC0468C0F24406C2200206022002060002440FFFEFFFFC80F2440880F24409D
:402EC0005C2200205922002064220020680024406400244080B582B000AF78600A00BB1C1A80BB1C1A887B681A60C046BD4602B080BDC04680B582B000AF78600A00BB1C53
:402F00001A80BB1C1A887B681A60C046BD4602B080BDC04680B584B000AF494B1B78DBB21B02484A1278D2B21343FB60464B1B78DBB21B02454A1278D2B21343BB60BB68EA
:402F4000434A934207D1FB68072B04D1414BBB600423FB6009E0BA68D4231B019A4204D1FB68042B01D13B4BBB603B4BBA681A603A4BFA681A603A4B1B78DBB21B02394AE8
:402F80001278D2B21343FB60FA6880239B019A4202D0FB68002B01D1334BFB60334BFA681A60334B1B78DBB21B02324A1278D2B21343FB60FB68304A934206D0FB682F4A16
:402FC000934202D0FB68052B01D12D4BFB602D4BFA681A602C4B1B681B097B602B4B1B68AA2B29D17B68012B26D9214B1B78DBB20E2B21D1264B1B78DBB29BB21B0299B2D2
:40300000244B1B78DBB29AB2BB1C0A431A80224BBA1C12881A60214B1B78DBB29BB21B0299B21F4B1B78DBB29AB23B000A431A801C4B3A0012881A60C046BD4604B080BDB8
:40304000D9F0FF0FD8F0FF0FDFF0FF0FDEF0FF0F580B0000580D00006C002E4074002E40DBF0FF0FDAF0FF0F0220000078002E40DDF0FF0FDCF0FF0F0F0F000005050000D0
:40308000050F000080002E40EC0F00F0E00F00F06DF2FF0F6CF2FF0F84002E406FF2FF0F6EF2FF0F94002E4080B582B000AF0200BB1D1A80BB1D1B881800FEF77BFAC0460D
:4030C000BD4602B080BDC04680B582B000AF78607B681800FEF748FAC046BD4602B080BD80B500AF00F0ECF8C046BD4680BDC04680B500AF00F0F0F8C046BD4680BDC046B4
:4031000080B500AF00F0E8F8044B180000F0A2F8032000F0ADF8C046BD4680BD2533000080B500AF034B180000F080F8C046BD4680BDC0462533000080B500AF0223FF3303
:403140001800BD4680BDC04680B582B000AF78602B231800BD4602B080BDC04680B582B000AF78602B231800BD4602B080BDC04680B582B000AF78602B231800BD4602B050
:4031800080BDC04680B582B000AF78602B231800BD4602B080BDC04680B582B000AF78602B231800BD4602B080BDC04680B582B000AF78602B231800BD4602B080BDC046E8
:4031C00080B582B000AF78602B231800BD4602B080BDC04680B582B000AF78602B231800BD4602B080BDC04680B500AF2B231800BD4680BD80B582B000AF0200FB1D1A70F3
:403200002B231800BD4602B080BDC04680B582B000AF786039602B231800BD4602B080BD80B500AFC046BD4680BDC04680B582B000AF786000F050F87B68180000F00AF80E
:40324000032000F015F800F03BF8C046BD4602B080BDC04680B582B000AF7860034B7A681A67C046BD4602B080BDC0460000002090B585B000AF0200FB1D1A700623FB60FF
:403280000B23FC18FFF7F5FB030023700B4B0B4A1268C0218A431100FA1D1078FA68904002000A431A600B23FB181B781800FFF7E4FBC046BD4605B090BDC0460CE400E030
:4032C00080B500AF034B802252011A60C046BD4680BDC04600E100E080B500AF034B802252011A60C046BD4680BDC04680E100E090B583B000AFFC1DFFF7BBFB0300237070
:40330000074B074A126804218A431A6030BFFB1D1B781800FFF7B1FBC046BD4603B090BD10ED00E080B500AF11F0E8FBC046BD4680BDC046002243088B4274D303098B425C
:403340005FD3030A8B4244D3030B8B4228D3030C8B420DD3FF22090212BA030C8B4202D31212090265D0030B8B4219D300E0090AC30B8B4201D3CB03C01A5241830B8B42CC
:4033800001D38B03C01A5241430B8B4201D34B03C01A5241030B8B4201D30B03C01A5241C30A8B4201D3CB02C01A5241830A8B4201D38B02C01A5241430A8B4201D34B025F
:4033C000C01A5241030A8B4201D30B02C01A5241CDD2C3098B4201D3CB01C01A524183098B4201D38B01C01A524143098B4201D34B01C01A524103098B4201D30B01C01A94
:403400005241C3088B4201D3CB00C01A524183088B4201D38B00C01A524143088B4201D34B00C01A5241411A00D20146524110467047FFE701B5002000F0F0F802BDC04620
:403440000029F7D076E7704703460B437FD4002243088B4274D303098B425FD3030A8B4244D3030B8B4228D3030C8B420DD3FF22090212BA030C8B4202D31212090265D042
:40348000030B8B4219D300E0090AC30B8B4201D3CB03C01A5241830B8B4201D38B03C01A5241430B8B4201D34B03C01A5241030B8B4201D30B03C01A5241C30A8B4201D33C
:4034C000CB02C01A5241830A8B4201D38B02C01A5241430A8B4201D34B02C01A5241030A8B4201D30B02C01A5241CDD2C3098B4201D3CB01C01A524183098B4201D38B019C
:40350000C01A524143098B4201D34B01C01A524103098B4201D30B01C01A5241C3088B4201D3CB00C01A524183088B4201D38B00C01A524143088B4201D34B00C01A5241E6
:40354000411A00D201465241104670475DE0CA0F00D04942031000D34042534000229C4603098B422DD3030A8B4212D3FC22890112BA030A8B420CD3890192118B4208D32D
:40358000890192118B4204D389013AD0921100E08909C3098B4201D3CB01C01A524183098B4201D38B01C01A524143098B4201D34B01C01A524103098B4201D30B01C01A8C
:4035C0005241C3088B4201D3CB00C01A524183088B4201D38B00C01A5241D9D243088B4201D34B00C01A5241411A00D20146634652415B10104601D34042002B00D54942CF
:40360000704763465B1000D3404201B5002000F005F802BD0029F8D016E770477047C046014B18687047C046681000200E4B70B500251E000D4CE41AA410A54204D0AB0033
:40364000F35898470135F8E711F0DAFC084B00251E00084CE41AA410A54204D0AB00F35898470135F8E770BD0C5001000C5001000C5001001450010030B50024A24208D085
:40368000035D651C0C5DA34201D0181B02E02C00F4E7002030BD002310B59A4203D0CC5CC4540133F9E710BD03008218934202D019700133FAE77047134A1088810703D040
:4036C0008107890F401A001D11791030484381B25088820703D08207920F801A001D800040180A494030098980B2CA0701D0503080B2890706D504495422091F0978514378
:40370000081880B270470000B80C00201411002010B501F00BFF10BD10B501F00DFF10BD10B500F05BFA10BD10B50749044609780220002907D1204601F04EFF002802D1C2
:4037400020460AF0D7F910BD540E002070B504460120002C12D02368002B0FD0616800290CD0074D06222889208118462968FFF792FF6968606809780170002070BD0000AD
:4037800014110020FFB585B0002768460E9D07734F481C460078002802D0082009B0F0BD10990F9801900095029105A807C800F007F90028F2D16946264603AB844608737A
:4037C000002C19D0002115E08A00B75A082F09D990198078002805D0083FB7521878401C187005E0002914D00027B75290198770491CC9B2A942E7D360460028CED10F982D
:40380000002809D0109901F041FA002804D00120C4E701208446EFE701F08EFE2D480021416081600599016021888180022D07D3A1798171A17AC171A1890181218A418170
:4038400000211EE0481C19E082008B00A75AE65ABE46BE4211D26F463E80B4461E190296B678BE7001967646E6521719029EBB78B3706646A652019EBE70401CA842E3D3E1
:40388000491CA942DED3134822460C3000906846037B0799069800F01BF90028B8D168460B4C007B60700B480C3001F075FE0028AED1084907480C3107F07AF90028A7D188
:4038C00007F094F90028A3D10121217066E70000B20C002008110020F8B5054636480F460078002802D002242046F8BD002F60D000243249002D16D02A89D0070DD028680B
:40390000002808D003881B3BE12B04D24088FB2801D81B2801D2012409E0900707D56868002804D1F7E70020088108604860002CDAD122482E8906811F481B21801D0180C5
:403940004180042101711C490020891C0870F00705D019480622801D2968FFF79CFE1749B00703D56A68144812788270124D0E46AD1D281F0D60486001F054FE284601F026
:4039800043FE30890DF020FE30890DF011F828880DF014F830890DF081FF03461033FFF78BFE1F21C018890140183880A91F88809AE7012498E70000B20C0020141100206F
:4039C000FFB58446384F1C460020BB883F78054602460646002F11D100290ED0029999420BD36146002908D0002C06D00A99002906D02E4B0B99994202D2012004B0F0BD61
:403A0000002144E0AB001F19BF78002F3BD0E35A002B38D07B43591889B22B0000F04AF8050410161C253100A7782388BC46FF27233BEB37BB4222D26346032B1FD322E0E7
:403A4000A388002B1FD0302B19D31CE02389002B19D0282B13D316E0A289002A13D01346134F233BBB420AD20DE0268A002A0AD033460F4F233BBB4201D2964203D901202A
:403A80000EE0002001E000280AD16D1CEDB2099B9D42B7D31C2463435B1802998B42ACD89642AAD8AAE70000B20C002079020000BAFF000030B47446641E2578641CAB4273
:403AC00000D21D46635D5B00E31830BC18470000FFB583B0002469460C801F4606468C80002806D00598002803D004983043800701D0012466E0002FFBD034490498098821
:403B00008842F6D3FFF70CFBFFF7F2FA00F012FC002855D100F07AFD002851D12C49084601F0E8F805042D0C4AD12A480499066081800021C18007810C98007AC00704D00C
:403B4000684601F012FD040007D10C98007A800703D501A801F012FD0446BF1DFEB2002C20D13146059800F05DF804001AD10DF0A3FE040016D16A46108892880836851894
:403B8000144AF1B29088D288AEB29319984207D3401B801A80B201F09DFB050007D000E0FF25012400F05EFA002D04D008E0F8B200F01CF9F6E700F081FA0749012008700C
:403BC00000F0CAFB204607B0F0BD0000B60C0020113D000020110020BE0C002010B503480078012801D101F017FA10BDBE0C002070B5084B0446DA889E8800205518B542D1
:403C000006D81D68AA182260DA885118D98070BD032070BD20110020014800897047000020110020F0B587B007460D4600208900009006916846FFF7DBFF844600285DD127
:403C4000304800990160002117E02E4B88001A680629115406D22C4C0419667882185670628805E0C419203CA67A8218567022891B68C018491C4280C9B2A942E5D3002401
:403C80002DE0601CC2B2059025E01E4FA30039689600581840887118039604904E88B04217D938466F46FE80B6464F786E4677710297049F4F800168039F5E187678791865
:403CC0004E700168764659184E800068029F18184770521CD2B2AA42D7D30598C4B2AC42CFD36046002809D168460699FFF780FF8446002802D1054900980860604607B0AD
:403D0000F0BD0000C00C002038500100C40C00207047000010B5002809D005494A68002A05D0011F08788000105801F081FA10BDC00C002010B50446FFF76EFFC0B2801DC7
:403D4000A0420CD307484068002808D0A100405801F0E0F9002801D00470001D10BD002010BD0000C00C0020F8B516460D460446FFF752FFC0B2801DA04203D20020C04382
:403D80000090F8BDB2B2E9B2684601F0E9F90099481C03D0024AA000526811500098F8BDC00C0020F8B50746FFF736FF801DC6B20A49002005460C680DE06178002907D0FC
:403DC0006188B94202D32078FFF7B4FF002804D1241D6D1CEDB2B542EFD3F8BDC00C002010B5002801D0FFF795FF10BD70B506460948002504680BE06178002905D06288F5
:403E00002078121D0023FFF7AFFF241D6D1CEDB2B542F1D370BD0000C00C0020FFB581B00A9F16000C4620D000F0F2F8054604281BD0002F0CD03846FFF7B4FF20492A01CF
:403E400051184860002810D03A460499FFF723FC1B4928010E504618778101980570200406D47D20C000444304E0FF2005B0F0BD6404640C00F0BAF80746042807D000F0A7
:403E80004FFAA0420BD800F04BFA201A03E0204600F0AAFA0020F06035720020E6E700F03FFA009000F0B6FA00980121001B009000F0ECF802493A0151180098C860E6E796
:403EC0002C110020F8B5060116483418217A042903D0E068002802D017E00020F8BD00F01FFA054600F096FA00F0A0F804280CD001010C480F18F8680021451900F0C6F8F0
:403F00000020F860284600F06FFA6068054D002801D0FFF765FF042020720020A8516081E060DAE72C110020FEB500266A46304601232549050169180D7A042D02D0C968F4
:403F400000291BD000211154401CC0B20428F0D300246846005D002830D01B48210108184189476805680291002101604160042241810272C160002E02D015E01354E3E7AF
:403F800000F054F804280ED001010F4808180190C6680021304600F079F801980021C160304600F021FA0126002D07D038460299A847002F02D03846FFF712FF641CE4B260
:403FC000042CC6D3FEBD00002C1100200EB5002005216A460090118150810348694600680EF0CFFA0EBD0000C80C0020074A0020010189180B7A042B02D0C968002903D085
:40400000401CC0B20428F3D3704700002C1100200549002002015218127A042A03D0401CC0B20428F6D370472C11002030B50A4B04200A4C00210A011219157A042D06D0CC
:40404000D268002A03D09A4201D808461346491CC9B20429EFD330BDFFFF00002C1100207047000030B50020074C05460423020111190B72A5504D60401C4D81C0B2CD6000
:404080000428F4D330BD00002C11002030B5094C00231A011219157A042D04D0D568002906D02D18D5605B1CDBB2042BF1D330BD2D1AF7E72C110020002070471CB50024A4
:4040C00069460C70142001902346054A05480EF05DFA04480068401C00D1FF2420461CBD39410000C80C00203EB5124A0146FF2000230124126800290DD0012914D004290D
:4041000008D104206946009308814B8110460EF038FA80B23EBD6846009304814381694610460EF029FAF4E768460093048143816946EBE7C80C002070B5458904684168A6
:4041400000890300FFF7B6FC08280509091E22282628002005F0E8FB1EE0022908D0C8B22A4621460CF070FB2046FFF739FE13E002202A4621460CF067FB2946204600F0BB
:404180000DF809E000200DF0FBFE05E02046FFF7CBFE01E0FFF744F8002070BD014B0022DB681847CC0C002070B5448905680089022803D0032809D0FF2070BD2246094C97
:4041C0000023A46829460120A04708E0FFF7A4FA241DA2B200232946022006F09CFB002070BD0000CC0C002070470000024800214160018041807047CC0C002070B50C4657
:40420000002186B016460391012802D0022859D116E003A9012006F0D3FB01281BD1039D324621462846FFF736FA0095287801900220694608814E816846FFF7B5FF41E0D1
:40424000214D002B686809D0049004A9022006F0B7FB01281DD0022006B070BD002812D0298840182146FFF716FA28880024801980B228806988091D884206D12C80134850
:40428000FFF792FF03E00320E6E788421AD96C6018E004986860E278A378110219430B4A698000231060E3565360032313815181A1788170E178C17061784170217801706A
:4042C000042028800020C7E7CC0C00206C1100203EB515460C46022803D004280CD000203EBD0091019002206946088107484A8100680EF046F907E00CF0A6FA044B0022A0
:40430000DB6829462046984701203EBDC80C0020CC0C0020014AD16090607047CC0C0020034801688068081A0A214843000970477811002010B5FEF7E3FE482204490548E7
:40434000FFF7A9F903490120C870002010BD0000545001007C15002010B5FEF7C1FE10BD70B5134C2368002B08D0207B1149C20705D04008400020738868A08070BD88688A
:404380000B4AA18880B29268814203D90A4D691A091802E0814202D2411A5118A160A080A0689842EAD30EF009F900F013F870BD78110020C0102E40FFFF000010B508469C
:4043C0001946FFF7A7FF10BD704710B5FFF780FF10BD000003480021016041608160C1607047000078110020024610B5FF20002A0CD0FFF7EFFF064C0321207B0843207362
:4044000010010A21FFF71CF82060002010BD00007811002000B504480A21806848430209FFF7D8FF104600BD781100200248007B8007C00F704700007811002010B54B4919
:404440000868002802DA4A4B01221A70022290430860484800694549C00B4031096A0246C907C90F0A4259D0012000F097FA3F480E216C30FEF73EFD3E4820218430FEF7F8
:4044800039FD3C4814219C30FEF734FD3948FF21C131A430FEF72EFD3648FF212F31B030FEF728FD33483449BC30FEF723FD31483249AC30FEF71EFD30492E48491CB4308B
:4044C000FEF718FD2B482E49B830FEF713FD29482C49CC30FEF70EFD26482B490830FEF709FD24482949A830FEF704FD214828498830FEF7FFFC1F4826498C30FEF7FAFC39
:404500001C481921C9029030FEF7F4FCFEF702FDFEF712FEC0B2022812D01FE000290BD0002101420AD0114801216030FEF7E2FC0120FEF7C9FD97E70121F2E7FF2010BD96
:4045400015491648FEF7D6FC14481549001DFEF7D1FC124800210830FEF7CCFC54200449C043891C0870002010BD000000F02E40DC0C002000002E40320300002F3F00006A
:404580003102000010520000EC160000FA12000031D000003AE300009956000080012E40F80F000070B50646581C80B245086D00002408E0304600F0C1F81055000A1119C0
:4045C000A41C4870A4B2AC42F4D3D80705D0D0182038D15CC47FD454C17770BD30B50A4C002100195B1E07E0541864782502545C2C430480891C89B29942F5DB994201D128
:40460000515C018030BD000000102E4010B5FF2000F0C4F90F49FF2048700E481021801D41800121417001700A490020C91C4870FFF704FF04000AD100F010F907210648A1
:40464000FEF748FC044807211830FEF743FC204610BD0000DC0C0020CC112E4070B5002405465B1E0AE0284600F068F8010A161971702D1D1055A41CADB2A4B29C42F2DBEC
:404680009C4203D1284600F059F8105570BD000070B500210A4D5B1E0AE0541864782602545C344346193480001D891C80B289B29942F2DB994202D1515C4019018070BD24
:4046C00000102E40F0B50599091FCFB200217E1E0BE0541864782502545C2C43164D45192C80001D891C80B289B2B142F1DBFC0712D01C78515C24020F4A0C4381180C80A6
:404700009C785D78001D210280B2294384182180001D80B2D9780CE059781A7809021143054A84182180001DD9789B78090280B2194380180180F0BD00102E40014940189B
:404740000088704700102E4010B50B490020487000F084F8002000F047F9002000F034F907210648FEF7B6FB044807211830FEF7B1FB002010BD0000DF0C0020CC112E40D6
:4047800010B50B46062812D006DC01280CD0032801D1FFF7D9FF10BD0A28FCD00B28FAD105480078107010BDFFF730FF10BD1146184600F035F910BDE20C0020F8B5244D88
:4047C000AC6A0127A007234E002816DA307806280ED1286A384328621F480069F903084381B21D481030FEF785FB042000F0D6F8174802212830FEF76DFBE00718D000F0C3
:404800001DFF01280FD1002000F06AFF062000F0C5F81049FF20C91E48707078002802D1686B384368630A4801212830FEF752FBE0050BD53078042802D1052000F0AEF8BF
:404840000348FF2101312830FEF744FBF8BD000040F02E40DF0C002000002E4010B503212348FEF747FB0120FEF71EFC20483038406A204C80076178800F890001431C4882
:404880000C38FEF737FB6078002808D0401E022181401820FEF7BEFEC000083800E0B82081B21548FEF726FB1348032109021438FEF720FB10481149B830FEF71BFB61211F
:4048C00089010F48FEF716FB0D480321001FFEF711FB0C490C48FEF70DFB0B480B496038FEF708FB084801218838FEF703FB10BD70F02E40E20C0020D8102E40908900001E
:40490000041E2E40FF0F000058122E40209000000849087806280BD148780749002803D1486B400840004863C86A01221043C86270470000DF0C002040F02E400148007891
:4049400070470000DF0C002000B50300FFF7B2F8080D050D0B070507090D012000BD032000BD042000BD022000BDFF2000BD0000074A9168D26889B2064B92B2994204D164
:4049800005498A4201D1012100E000210170704780002E4033D000003FE3000010B50446FEF7A6FB072C01D9FF2C01D102480470FEF796FB10BD0000DF0C002001494870E0
:4049C00070470000DC0C002010B5064A012805D01921C9021046FEF78DFA10BD1D21C902F8E7000090002E4010B50A4A141D012808D009491046FEF77DFA08492046FEF750
:404A000079FA10BD04491046891CFEF773FA0349491DF3E788002E4031D000003AE3000070B50C460546FEF787FBC0B202280E49287804D0FF2810D04C280CD810E0FF28D6
:404A400009D10A4AD0680004800F032801D0087807E09069000A553803E00878207070BD4F382070087070BDDE0C002000002E40F0B50122002834D0002932D00424420667
:404A800000D00524792342065B06D21800D0641C034600221EE00C2516466E43124D00277519AF72104F002ABB51696007D0661EB24209D10D4E86197606760E05E05E06D8
:404AC000760E8027BE1B00E080269B198919521C2E81D2B2A242DED303480549006B002288611046F0BD00000414002079020000E80C002018B50020694608700A480069F8
:404B000000280ED0132149014018047E684604704F21C900054800F059F8A04201D0012018BD002018BD0000E80C002088110020074900200C2242435218927A012A05D02A
:404B4000401CC0B20628F5D3002070470120704704140020F8B50E000446154609D0194F19497868A04202D94018A04201D38D4201D90120F8BD31462046FEF77DFD0028E9
:404B80001ED02A4631462046FEF785FDE8B200210C224A43D21913895568EE18A6420BD90126641B1B1B9672834209DA1469C01A044AC0B220329676491CC9B20629E7D3ED
:404BC0000020F8BD0414002079020000034610B50020024604E09C5C2018521CC0B292B28A42F8D310BD000070B500F05FF8084C064A216907480D46FEF74DFD05492846E4
:404C0000FFF736FFFFF776FF207070BD79020000E80C002088110020002070470020054A002902D0012902D002E0906000E0D06000207047E80C002070B5084C15460846AD
:404C40000549E26889182A46FEF725FDE0684019E06028B270BD000088110020E80C00203EB50A226946FFF7E7FF044606480A2200686946FEF700FD002802D00020C0432B
:404C80003EBD20463EBD0000EC0C0020002802D0044A914201D2FF20704703494A6108610020704779020000E80C0020024800218160C16070470000E80C002070B5074C46
:404CC00015460548A26880182A46FFF743FFA0684019A06028B270BD88110020E80C002010B503490A220968FFF7E8FF10BD0000EC0C002010B50F4A002313600E4A13609E
:404D00000E4B18600E4801600E49012008600E490860000290600E490C4808600D4914300860FF381538506000F0BCF800F0CAF9002010BD1C0D0020040D0020300D0020F6
:404D4000340D0020200D0020100D00204C150020140D0020280D0020014610B50020002910D0094B1A689C685118A14209D25868196080188A0704D08A07920F891A091DCA
:404D8000196010BD002010BD040D0020F8B50024164E671E321F3D463168136806E01422624310328A58521C1BD0641C9C42F6D36A1C14D02C461422544322460C32885061
:404DC0000C214843FFF7C8FF3168002808510AD031680020103408517068401C70602846F8BD2546E4E73846F8BD0000140D0020F3B50026F64381B000281BDB1E490968F5
:404E0000884217D80299002914D01B4F142204463F1D54432546396810354859401C09D0FEF766F938682F1F4159C359994203DBFEF756F93046FEBD214608310091465818
:404E400001590C20704308180C220299FEF723FC0948761C001D0068C159B14200D100260549009A091D865008684159491C4151FEF736F90020FEBD100D0020002803DB69
:404E800007490968884202D90020C043704704491422091D096850431030085870470000100D0020F0B500200D4A451E0346171F50600FE014260146714314680E1DA35104
:404EC0000C461668083433511668083435511468401C635039688842ECD30020F0BD0000140D0020F3B50026F64381B0002841DB2349096888423DD8029900293AD0204FAA
:404F0000142204463F1D54432546396810354859401C2FD0FEF7ECF83868415900292BD0211D009146580C21005971430F46C1190C220298FEF7AFFB11480021001D00683E
:404F4000761C00590C34C0190160416081600C48001D00680159B14200D100260849009A091D865008684159491E4151FEF7B8F80020FEBD3046FEBDFEF7B2F8FAE7000012
:404F8000100D0020FEB504460D4600201E49089E0860471E009001900290002C11D0486885420ED2002A0CD0002E0AD0642E08D808460C3001681C2068430C18207A002813
:404FC00001D03846FEBD0120226020721846FFF7DDFE6060401C13D06681A6810A4827610C3067610179A94200D205710021684601810A462846029B00F040F82846FEBDAE
:4050000000202072DDE700001C0D002038B50124009400F039F838BDFEB50027164EFF433D4600240EE01C20316860430818017A002906D04068FFF721FF002801D02546AC
:4050400003E0641C3079A042EDDA681C12D01C2130684D434419FEF74BF869466068FFF741FF0546FEF73CF8002DD9D1216868468847D5E7FEBD0000280D002038B5002440
:40508000009400F001F838BD1FB500220C49541E0A60002811DB496888420ED808491C220C31096850430818406801A9FFF7A0FE401C02D0002004B010BD2046FBE70000F5
:4050C0001C0D0020F0B50021114A4D1E174611710C3F0B46BD6016E008461C2460431668041D355114680646235014680836A3551468361DA353044616680A343353183071
:405100001468491C255078688142E5D30020F0BD280D002038B500210091002811DB0F49097888420DDA0D4D04010C3529680859002807D0201D0818694600F06FF9002842
:4051400001D0002038BDFDF7D3FF28680F34015D491E0155FDF7C4FF009838BD380D0020F7B582B0002502986E1E06602E48D21C024017462D4A2C4610460C3801781068E6
:4051800005E02301C358002B0FD0641CE4B28C42F7D3711C28D03401211D40180191039900F02AF900281FD101E02646F1E71F48016820460C300F521C48039902682046A2
:4051C0000E30115419480399026820460F3011540398784300F0A0F8144900280968085102D00024009011E001251AE00F48016801980818009900F02CF9002801D0012591
:4052000002E00098C0190090641CE4B203988442ECD3002D05D10298066004480179491C0171284605B0F0BDFCFF0000440D0020F8B50D4600216A468C461180002839DB09
:4052400023490978884235DA214B04010C3319680A59002A2ED020460C300B5A801C0E5C184670438018954224D3854222D2002006E007465F43BF18AF4206D0401CC0B20C
:40528000B042F6D36046002814D0114E271DC8190C366A46294600F006F900280AD168460088012808D030682946C01900F0D1F8002803D00120F8BD0020F8BDFDF718FF29
:4052C00030680F34015D491C0155FDF709FFF3E7380D0020F8B50F46002400F031F8002817D10C4900220B460C334A600EE021011D680E466A501D680C36AA53B61C1D68C1
:405300000F31AA551D68641C6A54E4B2BC42EED31A71F8BD380D002000280BD0C01C074A81085068890053884118994203D89368516018187047002070470000380D0020BE
:40534000F8B5064600200F4D009029700C0121466846FEF74DFC00280CD129460C3100980860301B001F84B221466846FEF740FC002801D0FF20F8BD6C800098A86000201F
:40538000F8BD0000380D0020F8B5002827DB19490978884223DA174C05010C342168485900281CD028460C30085A009028460E300E5C401C0E5420682F1DC01900F064F802
:4053C00000280CD12068002445590EE0094829460C300068C01900F03CF8002801D00120F8BD00982D18641CE4B2B442EED30020F8BD0000380D002030B50D4604000BD045
:40540000A800FFF789FF6060002805D000202570C0436080002030BD012030BD70B50D46040005D0002D03D00220205E002801DA012070BDFDF75CFE0221615E6068890013
:40544000405828606088401E6080FDF749FE002070BD70B50D46040007D0002D05D002212078615E401E814201DB012070BDFDF73FFE6088401C00B26080616880000D5097
:40548000FDF72EFE002070BD10B5040009D0227800216068FEF708F90020C0436080002010BD012010BDF0B500231D46002802D00224045F0AE00120F0BD46689F00F65984
:4054C0008E4201D1012503E05B1CDBB29C42F4DA15700020F0BD000001480078704700004C0D00207CB505460024FEF715F9A8796946087000A8062229460130FEF7CBF8FB
:405500000021684604F0D6FC0C2806D0072806D01F2806D0122806D006E0022404E0042402E0272400E0012420467CBD01480121417270478416002010B500F05FF9FFF71F
:40554000FDF9FFF701FA10BD70B504460025FEF7E3F8002C06D0A079012803D8214602F073FC00E00125284670BD01460120002902D05020088000207047000001460120F1
:40558000002905D0034854220078504308800020704700004E0D002010B502460D49FE204870032410460DF00FFB002810D10DF0B3FA00280CD105F05FFA002808D100F093
:4055C00013FB002804D104F01BFF002800D10024204610BD4C0D002070B50025044600280ED0A07901280BD8FEF796F8A0790028204602D002F0B6FF03E002F08BFF00E028
:405600000125284670BD0000014610B50120002904D006220248FEF73EF8002010BD0000580D002001460120002903D00878024908700020704700004E0D00200148007AB4
:40564000704700008416002038B504460120002C20D0617801291DD800290BD0FF25E535FEF75AF80C4828180088C0B22070072803D00EE0FF25CD35F2E700206946087070
:405680006846FFF775F969460878012801D108202070002038BD000000102E40014A0021926810474C0D002008B500226B461A7026280CD0094A342852680BD0352805D172
:4056C000900703D50021352005F0B2FA08BD19462620F9E7D007F9D03420F5E74C0D0020014908727047000084160020F8B504460120002C26D06178012902D92278092A77
:4057000020D8002905D0FF25E5352078092803D004E0FF25CD35F8E708202070FDF7FCFF2078114F114E08280DD00020FFF75CF970780128207810D00D4969180880FE2034
:4057400070700020F8BD0120FFF74EF90720B8810549203188800120F2E7B8810248217820308180EBE70000C0112E404C0D002000102E4070B50E46050001D0002400E04D
:405780000C4C002C11D0E28A500609D5D107C90F022002F07BFFE08A40218843E08204E0D107C90F012002F071FF3146284602F059FC70BDE4150020F8B5054600200446C3
:4057C0000D4E009013E022466946284600F0D2FF0098002801D00DF0D9F9A878214602F09BFAA878214602F089FA641CE4B2308AA042E8D8F8BD0000B016002038B51E4CB7
:40580000FFF79CF8042813D0052811D0062812D003282AD007280AD100206946087002460120FEF7ADFFFFF789F80128FBD138BD00F077FB38BD02F0C5FA00F072FB02F079
:4058400025FB8007800F0228F4D10C4841880029F0D05B21095D0029ECD101210170A07D0140022002F012FF38BD02F0AFFA0120FFF794F838BD0000E4150020720D00203F
:40588000F8B50646002402F06FFF0546304602F085FF03460A480021068A0DE001228A401046174628401F40002803D0002F01D1224394B2491CC9B28E42EFD82046F8BD5B
:4058C000B01600201CB50020694648706846FFF7BBFE01AA69460A20FEF752FF6946042008561CBD70B50D4601F02AFB04000BD02079002808D0FDF70FFFE178A0782A4650
:4059000002F036FC002070BD022070BD0148007870470000BC1500204030C07E002800D00120704700B500F001F800BD902148430749084A40186030417F491CC9B2417747
:40594000D289914201D300214177C8B270470000C4150020B016002013B501F0F1FA04000BD001F08EFE002807D0214601AA0A310620FEF705FF00201CBD02201CBD0000DD
:4059800010B50C4601F0DCFA00280AD001F079FE002806D0224604490A20FEF7F1FE002010BD022010BD0000A5150020F3B581B0074601460026029802F0CEFE0446002FC4
:4059C00001D0002500E0154D002D21D0284601F0EDFA032C04D13946029802F019FF06463846029902F08AF9032C06D0002C10D00121384601F0E0FB03E03146384603F0C2
:405A00000DF9284602F06EF80221284602F084F8FEBD3846029902F071F9FEBDE415002010B5044600F066FA002804D103F0C0FD002801D00C2010BD2078611C02F09AFCFC
:405A4000FF2801D01F2010BD02F0E0FCFF280AD02178621C02F0E0F8044821780068026B601C904710BD072010BD0000980D002010B503F09DFD002801D00C2010BD02F0A9
:405A80005BFC03480068C06A8047002010BD0000980D002070B50D46044610210CF0B6FF1021601806460CF0B1FF334610221946204603F0ABFD102130460CF0A7FF02207E
:405AC0002870204604F0D2FB70BD0000F8B504464078217802028006870FE0781143A67809050002090D0643084601F029FA00210546F2B2002812D0002C10D0022F0ED082
:405B0000032F0CD0002A0AD00279092A07D0002A05D0134A5A23527E1B5C9A4207D82889002104F0D8FA20460DF030F8FF21002914D10C482246006829464369304698470E
:405B4000C0B2FF280AD128464030817EF2B2491C8176FF232146284600F0E3F8F8BD00007C150020B40D00200020704710B5044603F01EFD002801D00C2010BD2078611CD0
:405B800002F0F8FBFF2808D002F030FB044821780068426B601C904710BD1F2010BD0000980D002010B500F06BF904F029FC002010BD10B5044600786178E2780843A178BC
:405BC00011430843217908436179084305D003F0E1FC002803D00C2010BD122010BD204602F0C0FC002010BD10B5FDF7A5FA02F0DDFD044803F048FD02F002FB012000F0BB
:405C000003F810BD8C150020F1B586B003A8009005A8019028489F22817A114081726846FDF794FD002845D169460989C90705D0224806990068C26868469047694609895E
:405C4000890706D5002835D11D480068816A0698884700282ED11B4E0025757075737571F575357675767575B570F570B5713746F5730120D03738731F20F880FF2130465F
:405C80007972A0300176457600F0BCFA00242046069901F0A1FC002803D1641C2406240EF5D0FD720749BD72B573C0310D704D704D600D7207B0F0BD7C150020B40D00209A
:405CC000980D0020C415002070B505460E46084602F04AFD0446304602F060FD0121A9400A46224001400A4301D0012070BD002070BD10B50446084602F050FD0121A14036
:405D0000014201D0012010BD002010BD10B5FEF715FE032804D102F059F80120FEF73EFE10BDFEB51C4616460F46054601F0DAFEA878FFF7F7FD02460190334639460094FC
:405D4000284600F00DF8002808D1A8780199FFF711FDFF2C02D138460CF018FFFEBD0000FFB585B005460E980C46FF2810D02B49C00009680A5840180179C07952788142E5
:405D800001D9012601E09006860F6846038108E06078A1788006860FE0780002014368460181284601F078FC070007D021462846079A00F073FC384609B0F0BD304600F012
:405DC00021FD04AE0346039002AA29460096204600F0ADFB3C20405D002818D0284601F05BFC012813D0684600890096C0B20190A878231DFF22079902F0E8F86846008983
:405E0000039BC2B2A878079902F028FCD3E7684600890021C0B20091E9E70000B00D0020F8B5002600253046FFF72AFD07001DD090201149704340186030447F12E0601C63
:405E4000FDF7FEFACCB23846E040C007C00F07D02146304601F04AFF21463046FFF7A6FD6D1CEDB20548018AA942E8D8761C3606360ED7D0F8BD0000C4150020B016002028
:405E800010B502F0BDF90020FFF7BEFE0CF014FF002010BDF8B5002400F0B2F80123012800D10124104F00203E4620360425082203E0002801D0002100E03146097900294E
:405EC00007D001290BD002290BD0114681402143CCB2401C0006000EEBD07C70F8BD1C43F7E72C43F5E70000C415002010B5FFF7D1FF10BD10B5044604F0D4FB002802D154
:405F0000601C00F001F810BD1CB500240094062269460194FDF7B0FB002800D1122420461CBD10B5FCF7A5FD0446FEF707FD012809D0FEF703FD022805D0FDF7D9F920466E
:405F4000FCF79BFDEEE72046FCF797FD10BD10B50B4681791943817103D08078114602F04BFB10BD10B582798A43827102D1807802F056FB10BD000030B50C4C0220A28A9C
:405F80000B4B9978002901D0022906D11D785B78EB18282B01D9032002E0032900D101205105490DC0020143A18230BDC0112E40680D002000B500F029F8002807D001283F
:405FC00005D0032801D0042801D0002000BD012000BD014600B50020C90701D000F010F800BD014600B50020C90701D000F008F800BD00000148006870470000600D002047
:4060000001480088000A704720102E400448008B410501D5042070474007800F7047000000102E400148406870470000600D002038B50446000610D5FFF7E8FF01280CD11D
:40604000684601F0C9FE6846007800F02BFB012001F0B0FD0220FFF749FF600708D507480179012904D1002101712620FFF71CFB0348006801692046884738BD6C0D00208D
:40608000980D002010B501460A4A007800241070FFF7B6FF0128084603D002F0CFF9204610BD00F0E7F80400F9D1034801210170F5E70000680D00208416002070B50446A8
:4060C000FFF79EFF002801D00C2070BDA27B01211F48002A827801D00A4301E05208520082706279012A14D0C17849084900C170184D2868016820468847207901280CD035
:406100006188208803F006F82080207904280FD015E0C2780A43C270EAE72868C168E01D8847E01D02F00AFA0B48808C208006E02868C168E01D8847E01D02F0FFF9074901
:4061400020798870204602F087F9002070BD0000C4150020980D00207C150020680D002008B50178FFF74CFF814201D10C2008BD002914D0072069460870FFF71BFF0128D4
:4061800007D10121684600F0E5F8012801D0092008BDFFF7F1FE02F093F9012011E0FFF709FF012806D1684601F016FE6846007800F0ACFA02F07AF9FFF722FF0028FBD130
:4061C0000220FFF793FE002008BD000010B501460A4A007800245070FFF712FF0128084603D002F0E9F9204610BD00F065F80400F9D1034801214170F5E70000680D002053
:406200008416002038B568460CF056FC002801D01F2038BD01210098C90201804180002505714571857107214173857302F014F9009C202200212046FDF736FA25702A461F
:406240000021601CFDF730FA204602F0F7F8204602F0B2F900980CF099FC062200210448FDF722FA02480C388560002038BD00006C0D0020F8B5044600250D4800950078AC
:40628000012806D068460CF017FC002803D007250CE00C250AE0074E009830602278611C401CFDF7F8F93168207808702846F8BD84160020600D0020F8B5044600250D489B
:4062C00000954078012806D068460CF0F5FB002803D007250CE00C250AE0074E009870602278611C401CFDF7D6F97168207808702846F8BD84160020600D002003460848AB
:4063000000B5834209D8184600F01AFE002804D00089984201D1012000BD002000BD0000FF0E0000074A9179491C8906890E917138220A4092014907090E11430843024933
:4063400008407047C4150020FF0E0000C006C00E70470000F8B507460E4600240D4803E0002C01D0002500E005462979002905D0641C2406240EF3D00020F8BD002120463B
:4063800001F02AF92E712046FFF7CCFF28813C700120F8BDE415002010B503F06BF90222002100F003F801F0D7FE10BD10B5094B40074907000F090F185A595A40185043F9
:4063C000C0086421FDF73CF8002800D1012080B210BD00009C500100F7B53D20405C88B015460C46002802D02878042802D200200BB0F0BD6946087200262046FFF78CFA45
:40640000012800D00126204603A938300191009023460327A17E34333246206A03F04EF902A8089900900B46019120463A4603A9243003F0CBF802466846007A2870204683
:4064400001F0B6F81046D3E7FFB587B00C4605461078694608723D20005D1746002826D000262046FFF758FA012800D00126204603A93830019100902346A17E3433324608
:40648000206A03F01BF902A80090291D019120462B1D03A924300A9A03F098F802006846007A388002D1204601F082F810460BB0F0BDF0B505463C20405C89B016460C4651
:4064C00000280CD0307869460873002806D000272046FFF721FA012803D003E01F2009B0F0BD012703200890204604A93830019100902346E17E34333A46E06903F0DEF865
:406500006846007B03A928180290009120462B46019504A92430089A03F08CF802466846007B3070204601F04DF81046D7E7FFB505463C20405C89B016460C46002810D0F5
:40654000084601F0A9F801280BD0308869468883002809D000272046FFF7DEF9012805D005E000200DB0F0BD0220FBE70127204603A93830019100902346E17E34333A4686
:40658000E06903F09BF8291D2B1D07A8129A6D4607C5204603A924300C9A03F04BF802466846808B3080204601F00CF81046D9E770B50D460446FFF7AFF901280AD0E87A7B
:4065C000A97A00020143A07801F0C2FC012808D0002070BD00222421204602F0EDFC242070BD28214C200155204600F0B1FB282070BD0000002801D0002000E003484030CE
:40660000C07F012800D0002070470000E41500200146002049070ED50021084B03E0002901D0002200E01A461279022A04D0491C0906090EF3D0704701207047E415002064
:406640000146002049070ED50021084B03E0002901D0002200E01A461279022A04D0491C0906090EF3D0704701207047E415002010B5044680346068002803D00CF09AFA36
:406680000020606010BD4030417070474030817070474030017070470171704792001018C166704770B53C2501F09CF9040004D020460021433001F0FFFBFF222946204625
:4066C00000F0E8FB002C02D0A07801F00DF970BD10B5002801D0002000E00348002802D0008903F03FFD10BDE415002010B5002801D0002000E00448002804D0017907293C
:4067000001D100F047F810BDE415002010B501F069F9002802D0807801F0E6F810BD00207047000070B50546008A00281ED01049F122897A1140C90618D5294640314A8AB5
:40674000098A521C4A4392B2D10800D10121540801E0621A94B2A042FBD9FEF7BDFE012804D1298AA878224601F0B8FC70BD00007C15002010B50023054C0B60248A944232
:4067800004D992001018C26E0A60C36610BD0000B016002038B5044600200090A079002814D14020015D052901D00E290ED168460CF092F9002809D12046009902F0DAFBEF
:4067C00003481021C28A2046FFF7C1FB38BD00007C15002010B50B4604460146184602F04BF8002802D020460CF0DAF910BD13B5044601AA11460620FDF7C2FF6846818837
:4068000061811CBD002800D10220704770470000F8B504462346401D543300909A1EA078911E01F0F5FA25464035A88A298A8000FCF706FE401E81B2688A884203D9698291
:40684000A07801F05DFF698A8C20015120460021433001F031FB27480088E88102F00AFFE989891C8AB26179FFF7A0FD01F074FC02F000FF2A8A6179FFF798FD074601F0E7
:406880005FFC688A002806D01B49088A032212021043088202E0002001F026FF1648803801886E8A002E0CD0304648431349FCF7B1FE0004000C01D0401C80B21049488039
:4068C00002E00F4800214180288A704381B2A07801F080FEFF2228374932B9B21346204602F01CFCE98AA07801F0F4FDA07801F025FAF8BD80102E40E0112E407102000015
:40690000720D00207FB504468034616805460E46183108226846FCF7BEFE31462031082202A8FCF7B8FE102168460CF06FF86068102108300CF06AF860682B460830243370
:406940001022694602F062FE7FBD10B504460821FFF708FB10212046FFF704FB207905281FD006281DD008281AD12189002003F071FB072020712046FEF7CEFF014620464A
:406980004030012913D00E21017000210176204600F0BCFF2046FFF76BFE2046FFF7C2FE10BD20890122002103F038FBE1E70521EAE70000FFB581B01F4604460821FFF7DE
:4069C000D1FA10212046FFF7CDFA2079082803D0092804D0042203E00422012501E009220025204600F044FE264600204036307022712046FFF73CFE0398002D02D001282B
:406A000008D00BE001280AD120890022029903F005FB04E02189029803F01CFB012700203076012F04D0204600F070FF05B0F0BD02983073204602F0EBFA054605480121B7
:406A4000C28A2046FFF783FA002DEFD109202071ECE700007C15002070B50C460546FEF75BFF012809D108212846FFF77BFA0023012221462846FFF79DFF70BD10B50446C7
:406A800000F0F6FD2046FFF7F3FD00214034217010BD70B505461A24FEF73EFF012809D108212846FFF75EFA0023012221462846FFF780FF70BD0000F8B504460020009088
:406AC0000E4668460CF008F8002801D00D20F8BD8420005908212030009D00F02CFA20460421383000F027FA002E02D1204600F0FBFD2946204602F0CCF90E480821C28AEA
:406B00002046FFF724FA204600F071FF25464035002808D0204600F023F8002801D0092028700020F8BD08202870204600F0DAFFF7E700007C150020014610B540310A46EA
:406B40000978082906D0092907D00A2901D100F091F810BD0B20107010BD00F001F810BD70B50446007925464035052805D0062803D008280FD00C2070BD03220621204626
:406B800002F01AFA0D480821C28A2046FFF7DFF91120287010E006202873204602F038FA0646AA8A0A20424301212046FFF7CFF9002E01D109202071002070BD7C150020A0
:406BC00038B504460020009068460BF085FF002801D00D2038BD2046009D00F0C3F908202071204600F080FD2946204602F084F900213D2001550F2040210855204600F0D0
:406C000071FF002038BD00B5024600F031FD10214032117000BD10B50446FEF77DFE012809D04020005D112805D100231A4606212046FFF7BFFE10BD10B5FFF786FE10BDEA
:406C400038B504460021684600910BF045FF00280CD12046009902F0D0F905480821C28A2046FFF774F90D204034207038BD00007C15002038B504460021684600910BF08B
:406C80002BFF002801D00D2038BD2046009902F0A9F905480821C28A2046FFF758F90C2040342070002038BD7C15002000787047F8B5002569460D70002801D0002400E06D
:406CC0001F4C002C18D0204600F0DBFC002813D0207903280BD005280CD026464036B18AA07801F081FCB078012806D01DE0042020711DE006202071F8BD0021204601F0D8
:406D0000D8FD274680373868002802D00BF052FF3D600020B0702079072802D12046FFF701FD0221204600F0F7FE20790428E3D1207A694608703420FEF7B6FCF8BD00004A
:406D4000E415002010B54C22115400F052F810BD10B50446FF21FFF705F909202071A07801F068FC10BD000038B5FF216A461180002801D0002400E00B4C002C12D011463D
:406D80000620FDF7FDFC684601882046FFF72FFD204600F087FC002804D104480068C1692046884738BD0000E4150020B40D002010B504468079002809D022214C2001551B
:406DC000FF212046FFF7CEF8204600F012F810BD10B5037902464032002B03D01173092B02D003E0002100E02221117300F001F810BDFEB5044600890027009027812079C2
:406E000026464036002817D0012815D002280AD112E002AA01A9204601F01CFD002807D101980BF0BDFE204601F03CFD0028F0D02046FEF7C1FCB7762546803528680028B2
:406E400002D00BF0B7FE2F606868002802D00BF0B1FE6F60317B002919D0009800F064F8A078002100F086FF2046FFF795FAA07801F058F8A07800F037FDFF212046FFF772
:406E800071F80B20FFF732F800F068FCFEBD1F213173E2E7F8B517460E46054602F0E6FB04003CD020460C3000F0F6FF2046062200211830FCF7F8FB204606220021123081
:406EC000FCF7F2FB1648224600683946436A28469847074626702846FEF71EFD012148406070002D10D02889608028464030C1782171002E0FD169796171018AE180418A70
:406F00002181808A608106E00648008BC005C00F2071002060803946204603F01EF8F8BD980D002000102E400A4610B50146002003F030F910BD10B50BF044FB10BD0000C9
:406F400000B50146FFF702FA002801D0002000E00348002802D002898A4200D0002000BDE415002038B5044680346068002806D168460BF0C1FD002801D100986060606895
:406F800038BD000010B5014600F086FB0128887802D0FEF7CBFC10BD90214843024940186030007F10BD0000C415002070B5054604464035A87F012811D1A1789020084AAB
:406FC000484380186030067F3046FEF77DFE002805D10220A877A078314601F04DF870BDC415002010B50C4CA07A002813D0FEF717FF0A48027F417F408B00F0B7FB0128D3
:4070000009D10020A07200F0FDFE05498989090B01D000F03BFA10BD94160020C4150020A0102E4070477047490510B5490F0B00FCF740FD060704080C0C0F073E21FFF791
:4070400081FE10BD0821FFF7C3FE10BDFFF7D1FE10BDFFF7ADFE10BDF8B507460025002D01D0002600E0204E00F09AFE3046403044890021418100F09DFE304600F001FB7B
:4070800001282BD1A00702D52846FFF711FEE00602D52846FFF768FEA00601D5FEF7C0FE600601D500F014FB200602D5284600F01DF8600702D5284600F02CFA380402D584
:4070C0002846FFF713FB780402D52846FFF700FBE00703D021463046FFF7A6FF6D1C2D062D0EBCD0F8BD0000E4150020F8B5002801D0002400E0284C002C4BD025464035A4
:40710000A878012846D1FF278820493700593E46002805D02149897A890601D5878AC68A2046FEF7F9FB012834D002F0A3FA2A8A6179FFF73BF9009001F002F80098334645
:40714000283081B23A46204601F0E8FFE98AA07801F0C0F912480188688A124E002810D048431149FCF756FA0004000C01D0401C80B27080A07DC107C90F002001F086FA7F
:4071800001E000207080288A698A484381B2A07801F020FAF8BD0000E41500207C15002060112E40720D0020710200000149096809680847B40D002070B50D460026194A8B
:4071C0000146002801D0002401E014462034002C26D0204600F060FA01280AD19020484380186030007FFEF76FFD002801D101F08FFE0D48006881692046884700280CD02B
:4072000020464030817EA94202D3491B817600E086762089294602F05EFF204600F062FC70BD0000C4150020B40D002070B503460088FFF785FE040013D000F022FA0028D6
